{
  "_format": "hh-sol-artifact-1",
  "contractName": "NFTMarket",
  "sourceName": "contracts/Market.sol",
  "abi": [
    {
      "inputs": [],
      "stateMutability": "nonpayable",
      "type": "constructor"
    },
    {
      "anonymous": false,
      "inputs": [
        {
          "indexed": true,
          "internalType": "address",
          "name": "nftContract",
          "type": "address"
        },
        {
          "indexed": true,
          "internalType": "uint256",
          "name": "tokenId",
          "type": "uint256"
        },
        {
          "indexed": true,
          "internalType": "uint256",
          "name": "projectId",
          "type": "uint256"
        },
        {
          "indexed": false,
          "internalType": "address",
          "name": "seller",
          "type": "address"
        },
        {
          "indexed": false,
          "internalType": "address",
          "name": "owner",
          "type": "address"
        },
        {
          "indexed": false,
          "internalType": "uint256",
          "name": "price",
          "type": "uint256"
        },
        {
          "indexed": false,
          "internalType": "bool",
          "name": "sold",
          "type": "bool"
        },
        {
          "indexed": false,
          "internalType": "bool",
          "name": "depSign",
          "type": "bool"
        },
        {
          "indexed": false,
          "internalType": "bool",
          "name": "contSign",
          "type": "bool"
        },
        {
          "indexed": false,
          "internalType": "string",
          "name": "contemail",
          "type": "string"
        },
        {
          "indexed": false,
          "internalType": "string",
          "name": "depemail",
          "type": "string"
        }
      ],
      "name": "MarketItemCreated",
      "type": "event"
    },
    {
      "anonymous": false,
      "inputs": [
        {
          "indexed": true,
          "internalType": "uint256",
          "name": "provisionId",
          "type": "uint256"
        },
        {
          "indexed": true,
          "internalType": "address",
          "name": "nftContract",
          "type": "address"
        },
        {
          "indexed": true,
          "internalType": "uint256",
          "name": "tokenId",
          "type": "uint256"
        },
        {
          "indexed": false,
          "internalType": "uint256",
          "name": "projectId",
          "type": "uint256"
        },
        {
          "indexed": false,
          "internalType": "address",
          "name": "seller",
          "type": "address"
        },
        {
          "indexed": false,
          "internalType": "address",
          "name": "owner",
          "type": "address"
        },
        {
          "indexed": false,
          "internalType": "uint256",
          "name": "price",
          "type": "uint256"
        },
        {
          "indexed": false,
          "internalType": "bool",
          "name": "sold",
          "type": "bool"
        },
        {
          "indexed": false,
          "internalType": "bool",
          "name": "depSign",
          "type": "bool"
        },
        {
          "indexed": false,
          "internalType": "bool",
          "name": "contSign",
          "type": "bool"
        }
      ],
      "name": "ProvisionItemCreated",
      "type": "event"
    },
    {
      "inputs": [
        {
          "internalType": "address",
          "name": "nftContract",
          "type": "address"
        },
        {
          "internalType": "uint256",
          "name": "tokenId",
          "type": "uint256"
        },
        {
          "internalType": "uint256",
          "name": "price",
          "type": "uint256"
        },
        {
          "internalType": "string",
          "name": "contemail",
          "type": "string"
        },
        {
          "internalType": "string",
          "name": "depemail",
          "type": "string"
        }
      ],
      "name": "createMarketItem",
      "outputs": [],
      "stateMutability": "payable",
      "type": "function"
    },
    {
      "inputs": [
        {
          "internalType": "address",
          "name": "nftContract",
          "type": "address"
        },
        {
          "internalType": "uint256",
          "name": "projectId",
          "type": "uint256"
        }
      ],
      "name": "createMarketSale",
      "outputs": [],
      "stateMutability": "payable",
      "type": "function"
    },
    {
      "inputs": [
        {
          "internalType": "address",
          "name": "nftContract",
          "type": "address"
        },
        {
          "internalType": "uint256",
          "name": "tokenId",
          "type": "uint256"
        },
        {
          "internalType": "uint256",
          "name": "projectId",
          "type": "uint256"
        },
        {
          "internalType": "uint256",
          "name": "price",
          "type": "uint256"
        }
      ],
      "name": "createProvisionItem",
      "outputs": [],
      "stateMutability": "payable",
      "type": "function"
    },
    {
      "inputs": [],
      "name": "fetchItemsCreated",
      "outputs": [
        {
          "components": [
            {
              "internalType": "address",
              "name": "nftContract",
              "type": "address"
            },
            {
              "internalType": "uint256",
              "name": "tokenId",
              "type": "uint256"
            },
            {
              "internalType": "uint256",
              "name": "projectId",
              "type": "uint256"
            },
            {
              "internalType": "address payable",
              "name": "seller",
              "type": "address"
            },
            {
              "internalType": "address payable",
              "name": "owner",
              "type": "address"
            },
            {
              "internalType": "uint256",
              "name": "price",
              "type": "uint256"
            },
            {
              "internalType": "bool",
              "name": "sold",
              "type": "bool"
            },
            {
              "internalType": "bool",
              "name": "depSign",
              "type": "bool"
            },
            {
              "internalType": "bool",
              "name": "contSign",
              "type": "bool"
            },
            {
              "internalType": "string",
              "name": "contemail",
              "type": "string"
            },
            {
              "internalType": "string",
              "name": "depemail",
              "type": "string"
            }
          ],
          "internalType": "struct NFTMarket.MarketItem[]",
          "name": "",
          "type": "tuple[]"
        }
      ],
      "stateMutability": "view",
      "type": "function"
    },
    {
      "inputs": [],
      "name": "fetchMarketItems",
      "outputs": [
        {
          "components": [
            {
              "internalType": "address",
              "name": "nftContract",
              "type": "address"
            },
            {
              "internalType": "uint256",
              "name": "tokenId",
              "type": "uint256"
            },
            {
              "internalType": "uint256",
              "name": "projectId",
              "type": "uint256"
            },
            {
              "internalType": "address payable",
              "name": "seller",
              "type": "address"
            },
            {
              "internalType": "address payable",
              "name": "owner",
              "type": "address"
            },
            {
              "internalType": "uint256",
              "name": "price",
              "type": "uint256"
            },
            {
              "internalType": "bool",
              "name": "sold",
              "type": "bool"
            },
            {
              "internalType": "bool",
              "name": "depSign",
              "type": "bool"
            },
            {
              "internalType": "bool",
              "name": "contSign",
              "type": "bool"
            },
            {
              "internalType": "string",
              "name": "contemail",
              "type": "string"
            },
            {
              "internalType": "string",
              "name": "depemail",
              "type": "string"
            }
          ],
          "internalType": "struct NFTMarket.MarketItem[]",
          "name": "",
          "type": "tuple[]"
        }
      ],
      "stateMutability": "view",
      "type": "function"
    },
    {
      "inputs": [],
      "name": "fetchProvisions",
      "outputs": [
        {
          "components": [
            {
              "internalType": "uint256",
              "name": "provisionId",
              "type": "uint256"
            },
            {
              "internalType": "address",
              "name": "nftContract",
              "type": "address"
            },
            {
              "internalType": "uint256",
              "name": "tokenId",
              "type": "uint256"
            },
            {
              "internalType": "uint256",
              "name": "projectId",
              "type": "uint256"
            },
            {
              "internalType": "address payable",
              "name": "seller",
              "type": "address"
            },
            {
              "internalType": "address payable",
              "name": "owner",
              "type": "address"
            },
            {
              "internalType": "uint256",
              "name": "price",
              "type": "uint256"
            },
            {
              "internalType": "bool",
              "name": "sold",
              "type": "bool"
            },
            {
              "internalType": "bool",
              "name": "depSign",
              "type": "bool"
            },
            {
              "internalType": "bool",
              "name": "contSign",
              "type": "bool"
            }
          ],
          "internalType": "struct NFTMarket.ProvisionItem[]",
          "name": "",
          "type": "tuple[]"
        }
      ],
      "stateMutability": "view",
      "type": "function"
    },
    {
      "inputs": [
        {
          "internalType": "uint256",
          "name": "projectId",
          "type": "uint256"
        }
      ],
      "name": "fetchProvisionsbyProject",
      "outputs": [
        {
          "components": [
            {
              "internalType": "uint256",
              "name": "provisionId",
              "type": "uint256"
            },
            {
              "internalType": "address",
              "name": "nftContract",
              "type": "address"
            },
            {
              "internalType": "uint256",
              "name": "tokenId",
              "type": "uint256"
            },
            {
              "internalType": "uint256",
              "name": "projectId",
              "type": "uint256"
            },
            {
              "internalType": "address payable",
              "name": "seller",
              "type": "address"
            },
            {
              "internalType": "address payable",
              "name": "owner",
              "type": "address"
            },
            {
              "internalType": "uint256",
              "name": "price",
              "type": "uint256"
            },
            {
              "internalType": "bool",
              "name": "sold",
              "type": "bool"
            },
            {
              "internalType": "bool",
              "name": "depSign",
              "type": "bool"
            },
            {
              "internalType": "bool",
              "name": "contSign",
              "type": "bool"
            }
          ],
          "internalType": "struct NFTMarket.ProvisionItem[]",
          "name": "",
          "type": "tuple[]"
        }
      ],
      "stateMutability": "view",
      "type": "function"
    },
    {
      "inputs": [],
      "name": "getListingPrice",
      "outputs": [
        {
          "internalType": "uint256",
          "name": "",
          "type": "uint256"
        }
      ],
      "stateMutability": "view",
      "type": "function"
    },
    {
      "inputs": [
        {
          "internalType": "uint256",
          "name": "projectId",
          "type": "uint256"
        }
      ],
      "name": "getcontemail",
      "outputs": [
        {
          "internalType": "string",
          "name": "",
          "type": "string"
        }
      ],
      "stateMutability": "view",
      "type": "function"
    },
    {
      "inputs": [
        {
          "internalType": "uint256",
          "name": "projectId",
          "type": "uint256"
        }
      ],
      "name": "getdepemail",
      "outputs": [
        {
          "internalType": "string",
          "name": "",
          "type": "string"
        }
      ],
      "stateMutability": "view",
      "type": "function"
    },
    {
      "inputs": [
        {
          "internalType": "uint256",
          "name": "projectId",
          "type": "uint256"
        }
      ],
      "name": "getprojectTokenId",
      "outputs": [
        {
          "internalType": "uint256",
          "name": "",
          "type": "uint256"
        }
      ],
      "stateMutability": "view",
      "type": "function"
    },
    {
      "inputs": [
        {
          "internalType": "address",
          "name": "nftContract",
          "type": "address"
        },
        {
          "internalType": "uint256",
          "name": "projectId",
          "type": "uint256"
        },
        {
          "internalType": "string",
          "name": "contemail",
          "type": "string"
        }
      ],
      "name": "projectcontSign",
      "outputs": [],
      "stateMutability": "nonpayable",
      "type": "function"
    },
    {
      "inputs": [
        {
          "internalType": "address",
          "name": "nftContract",
          "type": "address"
        },
        {
          "internalType": "uint256",
          "name": "projectId",
          "type": "uint256"
        },
        {
          "internalType": "string",
          "name": "depemail",
          "type": "string"
        }
      ],
      "name": "projectdepSign",
      "outputs": [],
      "stateMutability": "nonpayable",
      "type": "function"
    },
    {
      "inputs": [
        {
          "internalType": "address",
          "name": "nftContract",
          "type": "address"
        },
        {
          "internalType": "uint256",
          "name": "provisionId",
          "type": "uint256"
        },
        {
          "internalType": "uint256",
          "name": "projectId",
          "type": "uint256"
        },
        {
          "internalType": "string",
          "name": "contemail",
          "type": "string"
        }
      ],
      "name": "provisionContSign",
      "outputs": [],
      "stateMutability": "nonpayable",
      "type": "function"
    },
    {
      "inputs": [
        {
          "internalType": "address",
          "name": "nftContract",
          "type": "address"
        },
        {
          "internalType": "uint256",
          "name": "provisionId",
          "type": "uint256"
        },
        {
          "internalType": "uint256",
          "name": "projectId",
          "type": "uint256"
        },
        {
          "internalType": "string",
          "name": "depemail",
          "type": "string"
        }
      ],
      "name": "provisionDeptSign",
      "outputs": [],
      "stateMutability": "nonpayable",
      "type": "function"
    }
  ],
  "bytecode": "0x60806040526203d09060045534801561001757600080fd5b506001600055600380546001600160a01b03191633179055611efa8061003e6000396000f3fe6080604052600436106100e85760003560e01c80637d4852691161008a578063c23b139e11610059578063c23b139e1461025e578063ecb317b014610271578063f064c32e14610291578063f67a286e146102a657600080fd5b80637d485269146101e857806386bfdcd1146101fb5780638e49cc761461021b578063bfdecd601461022e57600080fd5b806310c880b3116100c657806310c880b31461016757806312e855851461018957806322fd27a3146101a857806358ffb508146101c857600080fd5b8063071e57a1146100ed5780630991ba47146101235780630f08efe014610145575b600080fd5b3480156100f957600080fd5b5061010d610108366004611ab4565b6102c6565b60405161011a9190611dd9565b60405180910390f35b34801561012f57600080fd5b5061013861036b565b60405161011a9190611d20565b34801561015157600080fd5b5061015a6104f3565b60405161011a9190611c21565b34801561017357600080fd5b50610187610182366004611998565b6107cf565b005b34801561019557600080fd5b506004545b60405190815260200161011a565b3480156101b457600080fd5b506101386101c3366004611ab4565b610879565b3480156101d457600080fd5b506101876101e3366004611998565b610a7e565b6101876101f63660046119f7565b610b21565b34801561020757600080fd5b50610187610216366004611943565b610e3f565b610187610229366004611a7c565b610ee3565b34801561023a57600080fd5b5061019a610249366004611ab4565b60009081526005602052604090206001015490565b61018761026c36600461191a565b6111fd565b34801561027d57600080fd5b5061010d61028c366004611ab4565b61131d565b34801561029d57600080fd5b5061015a61133d565b3480156102b257600080fd5b506101876102c1366004611943565b61166d565b60008181526005602052604090206008018054606091906102e690611e42565b80601f016020809104026020016040519081016040528092919081815260200182805461031290611e42565b801561035f5780601f106103345761010080835404028352916020019161035f565b820191906000526020600020905b81548152906001019060200180831161034257829003601f168201915b50505050509050919050565b6060600061037860015490565b905060008060008367ffffffffffffffff8111156103a657634e487b7160e01b600052604160045260246000fd5b6040519080825280602002602001820160405280156103df57816020015b6103cc61170f565b8152602001906001900390816103c45790505b50905060005b848110156104ea5760006103fa826001611e2a565b6000818152600660208181526040928390208351610140810185528154815260018201546001600160a01b039081169382019390935260028201549481019490945260038101546060850152600481015482166080850152600581015490911660a08401529081015460c0830152600781015460ff808216151560e08501526101008083048216151590850152620100009091041615156101208301528551929350918590879081106104bd57634e487b7160e01b600052603260045260246000fd5b60209081029190910101526104d3600186611e2a565b9450505080806104e290611e7d565b9150506103e5565b50949350505050565b6060600061050060025490565b9050600061050d60025490565b90506000808267ffffffffffffffff81111561053957634e487b7160e01b600052604160045260246000fd5b60405190808252806020026020018201604052801561057257816020015b61055f611763565b8152602001906001900390816105575790505b50905060005b848110156104ea576000600581610590846001611e2a565b81526020810191909152604001600020600401546001600160a01b031614156107bd5760006105c0826001611e2a565b60008181526005602081815260409283902083516101608101855281546001600160a01b039081168252600183015493820193909352600282015494810194909452600381015482166060850152600481015490911660808401529081015460a0830152600681015460ff808216151560c08501526101008083048216151560e086015262010000909204161515908301526007810180549394509092839161012084019161066e90611e42565b80601f016020809104026020016040519081016040528092919081815260200182805461069a90611e42565b80156106e75780601f106106bc576101008083540402835291602001916106e7565b820191906000526020600020905b8154815290600101906020018083116106ca57829003601f168201915b5050505050815260200160088201805461070090611e42565b80601f016020809104026020016040519081016040528092919081815260200182805461072c90611e42565b80156107795780601f1061074e57610100808354040283529160200191610779565b820191906000526020600020905b81548152906001019060200180831161075c57829003601f168201915b5050505050815250508486815181106107a257634e487b7160e01b600052603260045260246000fd5b60209081029190910101526107b8600186611e2a565b945050505b806107c781611e7d565b915050610578565b8080519060200120600560008481526020019081526020016000206007016040516107fa9190611b17565b6040518091039020146108545760405162461bcd60e51b815260206004820152601f60248201527f436f6e74726163746f7220656d61696c20646f6573206e6f74206d617463680060448201526064015b60405180910390fd5b50506000908152600660205260409020600701805462ff000019166201000017905550565b6060600061088660015490565b905060008060005b838110156108de5785600660006108a6846001611e2a565b81526020019081526020016000206003015414156108cc576108c9600184611e2a565b92505b806108d681611e7d565b91505061088e565b5060008267ffffffffffffffff81111561090857634e487b7160e01b600052604160045260246000fd5b60405190808252806020026020018201604052801561094157816020015b61092e61170f565b8152602001906001900390816109265790505b50905060005b84811015610a7457866006600061095f846001611e2a565b8152602001908152602001600020600301541415610a62576000610984826001611e2a565b6000818152600660208181526040928390208351610140810185528154815260018201546001600160a01b039081169382019390935260028201549481019490945260038101546060850152600481015482166080850152600581015490911660a08401529081015460c0830152600781015460ff808216151560e0850152610100808304821615159085015262010000909104161515610120830152855192935091859087908110610a4757634e487b7160e01b600052603260045260246000fd5b6020908102919091010152610a5d600186611e2a565b945050505b80610a6c81611e7d565b915050610947565b5095945050505050565b808051906020012060056000848152602001908152602001600020600801604051610aa99190611b17565b604051809103902014610afe5760405162461bcd60e51b815260206004820152601f60248201527f4465706172746d656e7420656d61696c20646f6573206e6f74206d6174636800604482015260640161084b565b50506000908152600660205260409020600701805461ff00191661010017905550565b60026000541415610b445760405162461bcd60e51b815260040161084b90611df3565b600260005582610b965760405162461bcd60e51b815260206004820152601c60248201527f5072696365206d757374206265206174206c6561737420312077656900000000604482015260640161084b565b610ba4600280546001019055565b6000610baf60025490565b9050604051806101600160405280876001600160a01b03168152602001868152602001828152602001336001600160a01b0316815260200160006001600160a01b03168152602001858152602001600015158152602001600015158152602001600015158152602001848152602001838152506005600083815260200190815260200160002060008201518160000160006101000a8154816001600160a01b0302191690836001600160a01b03160217905550602082015181600101556040820151816002015560608201518160030160006101000a8154816001600160a01b0302191690836001600160a01b0316021790555060808201518160040160006101000a8154816001600160a01b0302191690836001600160a01b0316021790555060a0820151816005015560c08201518160060160006101000a81548160ff02191690831515021790555060e08201518160060160016101000a81548160ff0219169083151502179055506101008201518160060160026101000a81548160ff021916908315150217905550610120820151816007019080519060200190610d589291906117de565b506101408201518051610d759160088401916020909101906117de565b50506040516323b872dd60e01b8152336004820152306024820152604481018790526001600160a01b03881691506323b872dd90606401600060405180830381600087803b158015610dc657600080fd5b505af1158015610dda573d6000803e3d6000fd5b505050508085876001600160a01b03167fc6f75c98c36624a3317cf747054a0e6d02eb0a66b8ff0659ee400d60a7b7bf953360008960008060008c8c604051610e2a989796959493929190611bb2565b60405180910390a45050600160005550505050565b808051906020012060056000848152602001908152602001600020600701604051610e6a9190611b17565b604051809103902014610ebf5760405162461bcd60e51b815260206004820152601f60248201527f436f6e74726163746f7220656d61696c20646f6573206e6f74206d6174636800604482015260640161084b565b506000908152600560205260409020600601805462ff000019166201000017905550565b60026000541415610f065760405162461bcd60e51b815260040161084b90611df3565b600260005580610f585760405162461bcd60e51b815260206004820152601c60248201527f5072696365206d757374206265206174206c6561737420312077656900000000604482015260640161084b565b610f66600180546001019055565b6000610f7160015490565b9050604051806101400160405280828152602001866001600160a01b03168152602001858152602001848152602001336001600160a01b0316815260200160006001600160a01b0316815260200183815260200160001515815260200160001515815260200160001515815250600660008381526020019081526020016000206000820151816000015560208201518160010160006101000a8154816001600160a01b0302191690836001600160a01b03160217905550604082015181600201556060820151816003015560808201518160040160006101000a8154816001600160a01b0302191690836001600160a01b0316021790555060a08201518160050160006101000a8154816001600160a01b0302191690836001600160a01b0316021790555060c0820151816006015560e08201518160070160006101000a81548160ff0219169083151502179055506101008201518160070160016101000a81548160ff0219169083151502179055506101208201518160070160026101000a81548160ff021916908315150217905550905050846001600160a01b03166323b872dd3330876040518463ffffffff1660e01b8152600401611154939291906001600160a01b039384168152919092166020820152604081019190915260600190565b600060405180830381600087803b15801561116e57600080fd5b505af1158015611182573d6000803e3d6000fd5b5050604080518681523360208201526000818301819052606082018790526080820181905260a0820181905260c082015290518793506001600160a01b038916925084917fc4b3b2ec8355064e620292c36525e18c181527c05808b60e53735c9d104c2320919081900360e00190a450506001600055505050565b600260005414156112205760405162461bcd60e51b815260040161084b90611df3565b60026000908155818152600560208190526040808320918201546001830154600390930154915190936001600160a01b03909216913480156108fc02929091818181858888f1935050505015801561127c573d6000803e3d6000fd5b506040516323b872dd60e01b8152306004820152336024820152604481018290526001600160a01b038516906323b872dd90606401600060405180830381600087803b1580156112cb57600080fd5b505af11580156112df573d6000803e3d6000fd5b50505060009384525050600560205250604081206004810180546001600160a01b03191633179055600601805460ff19166001908117909155905550565b60008181526005602052604090206007018054606091906102e690611e42565b6060600061134a60025490565b905060008060005b838110156113ad57336005600061136a846001611e2a565b81526020810191909152604001600020600301546001600160a01b0316141561139b57611398600184611e2a565b92505b806113a581611e7d565b915050611352565b5060008267ffffffffffffffff8111156113d757634e487b7160e01b600052604160045260246000fd5b60405190808252806020026020018201604052801561141057816020015b6113fd611763565b8152602001906001900390816113f55790505b50905060005b848110156104ea57336005600061142e846001611e2a565b81526020810191909152604001600020600301546001600160a01b0316141561165b57600061145e826001611e2a565b60008181526005602081815260409283902083516101608101855281546001600160a01b039081168252600183015493820193909352600282015494810194909452600381015482166060850152600481015490911660808401529081015460a0830152600681015460ff808216151560c08501526101008083048216151560e086015262010000909204161515908301526007810180549394509092839161012084019161150c90611e42565b80601f016020809104026020016040519081016040528092919081815260200182805461153890611e42565b80156115855780601f1061155a57610100808354040283529160200191611585565b820191906000526020600020905b81548152906001019060200180831161156857829003601f168201915b5050505050815260200160088201805461159e90611e42565b80601f01602080910402602001604051908101604052809291908181526020018280546115ca90611e42565b80156116175780601f106115ec57610100808354040283529160200191611617565b820191906000526020600020905b8154815290600101906020018083116115fa57829003601f168201915b50505050508152505084868151811061164057634e487b7160e01b600052603260045260246000fd5b6020908102919091010152611656600186611e2a565b945050505b8061166581611e7d565b915050611416565b8080519060200120600560008481526020019081526020016000206008016040516116989190611b17565b6040518091039020146116ed5760405162461bcd60e51b815260206004820152601f60248201527f6465706172746d656e7420656d61696c20646f6573206e6f74206d6174636800604482015260640161084b565b506000908152600560205260409020600601805461ff00191661010017905550565b6040805161014081018252600080825260208201819052918101829052606081018290526080810182905260a0810182905260c0810182905260e08101829052610100810182905261012081019190915290565b60405180610160016040528060006001600160a01b03168152602001600081526020016000815260200160006001600160a01b0316815260200160006001600160a01b031681526020016000815260200160001515815260200160001515815260200160001515815260200160608152602001606081525090565b8280546117ea90611e42565b90600052602060002090601f01602090048101928261180c5760008555611852565b82601f1061182557805160ff1916838001178555611852565b82800160010185558215611852579182015b82811115611852578251825591602001919060010190611837565b5061185e929150611862565b5090565b5b8082111561185e5760008155600101611863565b80356001600160a01b038116811461188e57600080fd5b919050565b600082601f8301126118a3578081fd5b813567ffffffffffffffff808211156118be576118be611eae565b604051601f8301601f19908116603f011681019082821181831017156118e6576118e6611eae565b816040528381528660208588010111156118fe578485fd5b8360208701602083013792830160200193909352509392505050565b6000806040838503121561192c578182fd5b61193583611877565b946020939093013593505050565b600080600060608486031215611957578081fd5b61196084611877565b925060208401359150604084013567ffffffffffffffff811115611982578182fd5b61198e86828701611893565b9150509250925092565b600080600080608085870312156119ad578081fd5b6119b685611877565b93506020850135925060408501359150606085013567ffffffffffffffff8111156119df578182fd5b6119eb87828801611893565b91505092959194509250565b600080600080600060a08688031215611a0e578081fd5b611a1786611877565b94506020860135935060408601359250606086013567ffffffffffffffff80821115611a41578283fd5b611a4d89838a01611893565b93506080880135915080821115611a62578283fd5b50611a6f88828901611893565b9150509295509295909350565b60008060008060808587031215611a91578384fd5b611a9a85611877565b966020860135965060408601359560600135945092505050565b600060208284031215611ac5578081fd5b5035919050565b60008151808452815b81811015611af157602081850181015186830182015201611ad5565b81811115611b025782602083870101525b50601f01601f19169290920160200192915050565b600080835482600182811c915080831680611b3357607f831692505b6020808410821415611b5357634e487b7160e01b87526022600452602487fd5b818015611b675760018114611b7857611ba4565b60ff19861689528489019650611ba4565b60008a815260209020885b86811015611b9c5781548b820152908501908301611b83565b505084890196505b509498975050505050505050565b6001600160a01b03898116825288166020820152604081018790528515156060820152841515608082015283151560a082015261010060c08201819052600090611bfe83820186611acc565b905082810360e0840152611c128185611acc565b9b9a5050505050505050505050565b60006020808301818452808551808352604092508286019150828160051b870101848801865b83811015611d1257603f19898403018552815180516001600160a01b039081168552888201518986015287820151888601526060808301518216908601526080808301519091169085015260a0808201519085015260c08082015115159085015260e08082015115159085015261010080820151151590850152610120808201516101608287018190529190611cdf83880182611acc565b925050506101408083015192508582038187015250611cfe8183611acc565b968901969450505090860190600101611c47565b509098975050505050505050565b602080825282518282018190526000919060409081850190868401855b82811015611dcc57815180518552868101516001600160a01b039081168887015286820151878701526060808301519087015260808083015182169087015260a0808301519091169086015260c0808201519086015260e08082015115159086015261010080820151151590860152610120908101511515908501526101409093019290850190600101611d3d565b5091979650505050505050565b602081526000611dec6020830184611acc565b9392505050565b6020808252601f908201527f5265656e7472616e637947756172643a207265656e7472616e742063616c6c00604082015260600190565b60008219821115611e3d57611e3d611e98565b500190565b600181811c90821680611e5657607f821691505b60208210811415611e7757634e487b7160e01b600052602260045260246000fd5b50919050565b6000600019821415611e9157611e91611e98565b5060010190565b634e487b7160e01b600052601160045260246000fd5b634e487b7160e01b600052604160045260246000fdfea2646970667358221220f9e9278a490247b672d0ccc830e5879ed49776ba8212d4860c439455f9cc68b464736f6c63430008040033",
  "linkReferences": {},
  "deployedLinkReferences": {}
}